:020000040800F2
:1000000000000220AD140008491400084B14000839
:100010004D1400084F14000851140008000000009F
:100020000000000000000000000000005314000861
:100030005514000800000000571400085914000867
:10004000FD140008FD140008FD140008FD1400084C
:10005000FD140008FD140008FD140008FD1400083C
:10006000FD140008FD140008FD140008FD1400082C
:10007000FD140008FD140008FD140008FD1400081C
:10008000FD140008FD140008FD1400080000000025
:10009000000000000000000000000000FD14000847
:1000A000FD140008FD140008FD140008FD140008EC
:1000B000FD140008FD140008FD140008FD140008DC
:1000C000FD140008FD140008FD140008FD140008CC
:1000D000FD140008FD140008FD14000800000000D5
:1000E000FD140008FD140008FD14000800000000C5
:1000F000000000000000000000000000FD140008E7
:1001000000000000FD140008FD140008FD140008A4
:1001100000000000000000000000000000000000DF
:10012000FD140008FD140008FD140008FD1400086B
:10013000FD140008000000000000000000000000A6
:10014000000000000000000000000000FD14000896
:10015000FD140008FD140008FD140008FD1400083B
:10016000FD140008FD14000800000000000000005D
:10017000000000000000000000000000000000007F
:1001800000000000FD140008000000000000000056
:08019000FD140008FD14000835
:1001980010B5054C237833B9044B13B10448AFF3B9
:1001A80000800123237010BD100000200000000013
:1001B8005815000808B5034B1BB103490348AFF3B2
:1001C800008008BD00000000140000205815000839
:1001D80053B94AB9002908BF00281CBF4FF0FF31A6
:1001E8004FF0FF3000F072B9ADF1080C6DE904CEA4
:1001F80000F006F8DDF804E0DDE9022304B07047FA
:100208002DE9F047089E04468846002B4BD18A42C8
:10021800154667D9B2FA82F24AB1C2F1200701FA4B
:1002280002F320FA07F7954047EA030894404FEA9B
:10023800154E230CB8FBFEF71FFA85FC0EFB17883A
:1002480043EA084307FB0CF1994209D9EB1807F177
:10025800FF3080F01B81994240F21881023F2B4405
:100268005B1AA4B2B3FBFEF00EFB103344EA03445E
:1002780000FB0CFCA44509D92C1900F1FF3380F0D0
:100288000781A44540F2048102382C4440EA074023
:10029800A4EB0C0400271EB1D4400023C6E9004398
:1002A8003946BDE8F0878B4209D9002E00F0EB8073
:1002B8000027C6E9000138463946BDE8F087B3FA99
:1002C80083F7002F47D18B4202D3824200F2FA8093
:1002D800841A61EB030301209846002EE0D0C6E99A
:1002E8000048DDE702B9FFDEB2FA82F2002A40F0E8
:1002F8008F80491B4FEA154E1FFA85F80127B1FB7D
:10030800FEFC230C0EFB1C1143EA014308FB0CF115
:10031800994207D9EB180CF1FF3002D2994200F24A
:10032800CD808446591AA3B2B1FBFEF00EFB10141F
:1003380043EA044408FB00F8A04507D92C1900F14A
:10034800FF3302D2A04500F2B6801846A4EB080499
:1003580040EA0C409FE7C7F1200CBB4022FA0CFE94
:100368004EEA030E01FA07F420FA0CF521FA0CF311
:100378004FEA1E482543B3FBF8F92C0C08FB193348
:100388001FFA8EFA44EA034309FB0AF49C4202FA74
:1003980007F200FA07F10BD91EEB030309F1FF304E
:1003A80080F087809C4240F28480A9F1020973445E
:1003B8001B1BADB2B3FBF8F008FB103345EA03444E
:1003C80000FB0AFAA24508D91EEB040400F1FF332A
:1003D8006BD2A24569D90238744440EA0940A0FBAF
:1003E8000289A4EB0A044C45C2464B4654D351D06B
:1003F800002E69D0B1EB0A0564EB030404FA0CFC87
:10040800FD40FC404CEA0505C6E90054002747E7D3
:10041800C2F1200320FA03F7954001FA02F021FA0D
:1004280003F34FEA154E3843010CB3FBFEF71FFAEE
:1004380085F80EFB173341EA034107FB08F38B42AB
:1004480004FA02F407D9691807F1FF3C2FD28B424E
:100458002DD9023F2944CB1A81B2B3FBFEF00EFB23
:10046800103341EA034100FB08F38B4207D96918AE
:1004780000F1FF3C17D28B4215D902382944C91A1A
:1004880040EA07473BE73746304609E70746E7E6CD
:100498001846FBE64145ABD2B8EB020A69EB0E02FF
:1004A80001381346A4E76046E9E7184695E767462A
:1004B800D1E781467CE702382C4447E7ACF1020CCF
:1004C8002B442FE7384608E73746E9E6704700BF70
:1004D800034613F8012B002AFBD1181A013870477C
:1004E80010B504460E4B18784FF47A73B3FBF0F34B
:1004F8000C4A1068B0FBF3F000F088F868B90F2CCC
:1005080001D901200AE0002221464FF0FF3000F017
:1005180049F8034B5C60002000E0012010BD00BFDB
:10052800000000200C00002008B50B4B1A6842F4AC
:1005380000721A601A6842F480621A601A6842F4FB
:1005480080721A60032000F01BF80020FFF7C8FF34
:1005580000F020FF002008BD003C0240034A11685B
:10056800034B1B780B441360704700BF2C0000201E
:1005780000000020014B1868704700BF2C000020C5
:10058800074AD36823F4E0631B041B0C000200F441
:10059800E060184340F0BF6040F40030D06070471E
:1005A80000ED00E030B4174BDB68C3F30223C3F15E
:1005B8000704042C28BF04241D1D062D18D9033B4D
:1005C8004FF0FF3505FA04F421EA0401994005FAD1
:1005D80003F322EA0303194300280BDB0901C9B21C
:1005E80000F1604000F5614080F8001330BC7047AE
:1005F8000023E5E700F00F000901C9B2024B1954C6
:10060800F4E700BF00ED00E014ED00E00138B0F1C0
:10061800807F0AD2064B5860064AF02182F82310E0
:100628000020986007221A6070470120704700BFB9
:1006380010E000E000ED00E000230F2B00F2C58081
:10064800F0B482B039E0042200E00022B2403A431C
:1006580002345E4E46F824205D4A1468EA4302EAF2
:1006680004064F6817F4803F01D045EA0406584C49
:100678002660646802EA04064F6817F4003F01D058
:1006880045EA0406524C6660A46802EA04064F680C
:1006980017F4801F01D045EA04064D4CA660E468B3
:1006A80022404E6816F4001F01D045EA0402484C67
:1006B800E26001330F2B00F2858001229A400C681A
:1006C80004EA0205AA42F4D14C68022C01D0122C8B
:1006D80010D1DE08083650F826C003F00704A7003A
:1006E8000F24BC402CEA040C0C69BC4044EA0C04FE
:1006F80040F8264004685F000326BE40F64306EA39
:10070800040C4C6804F00304BC4044EA0C04046084
:100718004C6804F1FF3CBCF1010F03D9112C01D046
:10072800122C10D1846806EA040CCC68BC4044EA58
:100738000C048460446824EA02024C68C4F3001480
:100748009C4014434460C26816408A68BA403243E9
:10075800C2604A6812F0805FABD0002201921D4A45
:10076800546C44F480445464526C02F48042019204
:10077800019A9C08A61C154A52F8267003F0030239
:1007880096000F22B24027EA0207134A90423FF42C
:100798005CAF02F5806290420ED002F58062904212
:1007A8000CD002F5806290420AD002F58062904235
:1007B8003FF449AF072249E7012247E7022245E70C
:1007C800032243E702B0F0BC70477047003801408D
:1007D800003C01400038024000000240002800F0C0
:1007E800BB8170B582B00446036813F0010F3BD09B
:1007F800A74B9B6803F00C03042B2CD0A44B9B68DD
:1008080003F00C03082B21D06368B3F5803F4FD069
:10081800B3F5A02F52D09E4B1A6822F480321A608A
:100828001A6822F480221A606368002B50D0FFF700
:10083800A1FE0546964B1B6813F4003F14D1FFF741
:1008480099FE401B6428F5D903208AE1904B5B6828
:1008580013F4800FD8D08E4B1B6813F4003F03D0DD
:100868006368002B00F07A81236813F0020F55D0DB
:10087800874B9B6813F00C0F3ED0854B9B6803F0A9
:100888000C03082B33D0E368002B68D0814B01227E
:100898001A60FFF76FFE05467D4B1B6813F0020FC9
:1008A80054D1FFF767FE401B0228F5D9032058E111
:1008B800774A136843F480331360B5E7744B1A68BA
:1008C80042F480221A601A6842F480321A60ABE758
:1008D800FFF750FE05466E4B1B6813F4003FC3D06C
:1008E800FFF748FE401B6428F5D9032039E1684B1F
:1008F8005B6813F4800FC6D1654B1B6813F0020FB9
:1009080004D0E368012B01D001202AE1604A136872
:1009180023F0F803216943EAC1031360236813F045
:10092800080F40D0636963B35B4B01221A60FFF77D
:1009380021FE0546564B5B6F13F0020F33D1FFF7CC
:1009480019FE401B0228F5D903200AE1504A136812
:1009580023F0F803216943EAC1031360DEE74D4B36
:1009680000221A60FFF706FE0546494B1B6813F084
:10097800020FD3D0FFF7FEFD401B0228F5D9032054
:10098800EFE0454B00221A60FFF7F4FD0546404BA7
:100998005B6F13F0020F06D0FFF7ECFD401B022837
:1009A800F5D90320DDE0236813F0040F79D0384B24
:1009B8001B6C13F0805F33D100230193344B1A6C06
:1009C80042F080521A641B6C03F080530193019B20
:1009D8000125324B1B6813F4807F23D0A368012BB9
:1009E80034D0052B38D02A4B1A6F22F001021A672F
:1009F8001A6F22F004021A67A368002B36D0FFF79B
:100A0800B9FD0646224B1B6F13F0020F48D1FFF7C2
:100A1800B1FD801B41F288339842F3D90320A0E04E
:100A28000025D6E71D4A136843F480731360FFF767
:100A3800A1FD0646194B1B6813F4807FCED1FFF742
:100A480099FD801B0228F5D903208AE0104A136F0C
:100A580043F001031367CFE70D4B1A6F42F004020E
:100A68001A671A6F42F001021A67C5E7FFF782FD9D
:100A78000646074B1B6F13F0020F11D0FFF77AFDE4
:100A8800801B41F288339842F3D9032069E000BF04
:100A98000038024000004742800E47420070004084
:100AA800E5B9A369002B5BD0304A926802F00C02CA
:100AB800082A58D0022B17D02D4B00221A60FFF7B6
:100AC80059FD0446294B1B6813F0007F42D0FFF7FD
:100AD80051FD001B0228F5D9032042E0234A136C7C
:100AE80023F080531364DCE7214B00221A60FFF7E0
:100AF80041FD05461D4B1B6813F0007F06D0FFF72C
:100B080039FD401B0228F5D903202AE0E369226A4F
:100B18001343626A43EA8213A26A5208013A43EA1B
:100B28000243E26A43EA0263104A5360104B01220F
:100B38001A60FFF71FFD04460C4B1B6813F0007F7B
:100B480006D1FFF717FD001B0228F5D9032008E09E
:100B5800002006E0002004E001207047012000E0AA
:100B6800002002B070BD0120FBE700BF0038024042
:100B780060004742264B9B6803F00C03042B44D0CB
:100B8800082B01D0234870472DE9F04B204B5A68B9
:100B980002F03F025B6813F4800F13D01C4B5968B6
:100BA800C1F3881100231C48A1FB0001FFF710FBCB
:100BB800174B5B68C3F3014301335B00B0FBF3F0F1
:100BC800BDE8F08B124B5B68C3F388131E46002701
:100BD8005C010025E41A65EB0705A90141EA946167
:100BE800A001001B61EB0501CB0043EA5073C40070
:100BF800A01943EB07018B0243EA90538402204675
:100C080019460023FFF7E4FAD2E70348704700BF0C
:100C1800003802400024F40040787D01002800F0EC
:100C28009D8070B504464F4B1B6803F00F038B4241
:100C380009D2CBB24B4A1370136803F00F038B42EF
:100C480001D0012070BD236813F0020F17D013F0F4
:100C5800040F04D0444A936843F4E0539360236834
:100C680013F0080F04D0404A936843F4604393603C
:100C78003D4A936823F0F003A068034393600D4650
:100C8800236813F0010F32D06368012B21D09A1E1C
:100C9800012A25D9344A126812F0020F60D032496D
:100CA8008A6822F0030213438B60FFF763FC064651
:100CB8002D4B9B6803F00C036268B3EB820F16D0D0
:100CC800FFF758FC801B41F288339842F0D9032083
:100CD800B8E7254A126812F4003FE0D10120B1E7D5
:100CE800214A126812F0007FD9D10120AAE71D4BD2
:100CF8001B6803F00F03AB4209D9EAB2194B1A700B
:100D08001B6803F00F03AB4201D001209AE7236868
:100D180013F0040F06D0144A936823F4E053E168F3
:100D28000B439360236813F0080F07D00E4A9368AB
:100D380023F46043216943EAC1039360FFF71AFF74
:100D4800094B9B68C3F30313084AD35CD840084B8C
:100D580018600020FFF7C4FB002073E701207047EC
:100D680001206FE7003C024000380240701500087F
:100D78000C000020014B1868704700BF0C000020D1
:100D880008B5FFF7F7FF044B9B68C3F38223034AB8
:100D9800D35CD84008BD00BF003802408015000869
:100DA80008B5FFF7E7FF044B9B68C3F34233034AD8
:100DB800D35CD84008BD00BF003802408015000849
:100DC8002DE9F843044601680A6922F44052C368D1
:100DD80013430B610168CA6822F4164222F00C0220
:100DE80083680069034360690343E069034313436D
:100DF800CB6021684A6922F44072A36913434B61AE
:100E0800E369B3F5004F60D02368B84A934200F015
:100E1800148102F58062934200F00F81FFF7B0FF62
:100E280000EB800000EB80006568AD00B0FBF5F5D5
:100E3800AF4FA7FB05356D092E01FFF7A1FF00EBAA
:100E4800800000EB80006568AD00B0FBF5F9FFF7A6
:100E580097FF00EB800000EB80006568AD00B0FBF9
:100E6800F5F5A7FB05356D094FF0640808FB1595E6
:100E78002D013235A7FB05356D0905F0F005354420
:100E8800FFF77EFF00EB800000EB80006668B6008D
:100E9800B0FBF6F6FFF774FF00EB800000EB800074
:100EA80063689B00B0FBF3F0A7FB0030400908FB28
:100EB80010684FEA081808F13208A7FB0837C7F38B
:100EC800431723682F449F600DE12368874A9342A4
:100ED8005BD002F58062934257D0FFF751FF00EBD9
:100EE800800000EB800065686D00B0FBF5F5804F71
:100EF800A7FB05356D092E01FFF742FF00EB8000C7
:100F080000EB800065686D00B0FBF5F9FFF738FF6E
:100F180000EB800000EB800065686D00B0FBF5F524
:100F2800A7FB05356D094FF0640808FB1595ED0022
:100F38003235A7FB05356D096D0005F4F8753544A4
:100F4800FFF71EFF00EB800000EB8000666876006C
:100F5800B0FBF6F6FFF714FF00EB800000EB800013
:100F680063685B00B0FBF3F3A7FB03235B0908FB93
:100F780013684FEAC80808F13208A7FB0837C7F317
:100F8800421723682F449F60ADE0FFF709FF00EB8D
:100F9800800000EB800065686D00B0FBF5F5544FEC
:100FA800A7FB05356D092E01FFF7FAFE00EB80005F
:100FB80000EB800065686D00B0FBF5F9FFF7F0FE07
:100FC80000EB800000EB800065686D00B0FBF5F574
:100FD800A7FB05356D094FF0640808FB1595ED0072
:100FE8003235A7FB05356D096D0005F4F8753544F4
:100FF800FFF7D6FE00EB800000EB80006668760005
:10100800B0FBF6F6FFF7CCFE00EB800000EB8000AB
:1010180063685B00B0FBF3F3A7FB03235B0908FBE2
:1010280013684FEAC80808F13208A7FB0837C7F366
:10103800421723682F449F6055E0FFF7B1FE00EB8D
:10104800800000EB80006568AD00B0FBF5F5284F27
:10105800A7FB05356D092E01FFF7A2FE00EB800006
:1010680000EB80006568AD00B0FBF5F9FFF798FE6E
:1010780000EB800000EB80006568AD00B0FBF5F583
:10108800A7FB05356D094FF0640808FB15952D0180
:101098003235A7FB05356D0905F0F0053544FFF736
:1010A8007FFE00EB800000EB80006668B600B0FBB6
:1010B800F6F6FFF775FE00EB800000EB8000636832
:1010C8009B00B0FBF3F0A7FB0030400908FB106859
:1010D8004FEA081808F13208A7FB0837C7F3431787
:1010E80023682F449F60BDE8F88300BF00100140CB
:1010F8001F85EB512DE9F04105460F4616469846E7
:10110800069C2B681B6837EA03030CBF01230023E6
:10111800B3421DD1B4F1FF3FF3D02CB1FFF72AFA47
:10112800A0EB0800A042ECD92A68D36823F4D07356
:10113800D3602A68536923F001035361202385F89B
:10114800393085F83A30002385F83830032000E03C
:101158000020BDE8F08158B310B5044690F8393046
:101168000BB3242384F839302268D36823F400535E
:10117800D3602046FFF724FE2268136923F49043C6
:1011880013612268536923F02A0353612268D368E4
:1011980043F40053D3600020E063202384F83930FF
:1011A80084F83A3010BD80F8383000F00FF9D8E7ED
:1011B800012070472DE9F04182B01E4690F8393081
:1011C800DBB2202B55D104460D469046002955D058
:1011D800002A55D090F83830012B53D0012380F8DD
:1011E80038300023C363212380F83930FFF7C2F970
:1011F8000746A4F82480A4F8268010E000963B4611
:10120800002280212046FFF775FF00283CD12B885B
:101218002268C3F3080353602369C3B90235E38C1A
:101228009BB2B3B1E38C013B9BB2E384A368B3F5F3
:10123800805FE3D000963B46002280212046FFF7DE
:1012480059FF18BB2A7823685A600135E7E701354A
:10125800E5E700963B46002240212046FFF74AFF7B
:101268000346A8B9202284F83920002284F83820BF
:1012780000E00223184602B0BDE8F0810123F9E737
:101288000123F7E70223F5E70323F3E70323F1E755
:101298000323EFE782B000230193064B1A6B42F059
:1012A80001021A631B6B03F001030193019B02B057
:1012B800704700BF0038024008B50848084B036073
:1012C8004FF4E133436000238360C36003610C2261
:1012D80042618361C361FFF73EFF08BD3000002013
:1012E8000044004010B594B03022002108A800F056
:1012F80027F9002403940494059406940794019410
:10130800154B1A6C42F080521A641B6C03F0805320
:101318000193019B0294114B1A6842F440421A60EF
:101328001B6803F440430293029B022308930123A2
:101338000B9310230C930E9408A8FFF74FFA0F2372
:1013480003930494059406940794214603A8FFF791
:1013580065FC14B010BD00BF0038024000700040AA
:1013680008B5FFF7E1F8FFF7BDFFFFF793FFFFF7B9
:10137800A3FF064B1C682046FFF7AAF84FF0FF337F
:1013880082B221460248FFF715FFFEE70800002059
:101398003000002082B0002100910B4B5A6C42F4BF
:1013A80080425A645A6C02F480420092009A019179
:1013B8001A6C42F080521A641B6C03F0805301933C
:1013C800019B02B0704700BF0038024000B589B0E9
:1013D8000023039304930593069307930268164B1F
:1013E8009A4202D009B05DF804FB0021019103F58F
:1013F800FA331A6C42F400321A641A6C02F400329E
:101408000192019A02911A6B42F001021A631B6B56
:1014180003F001030293029B0C230393022304931A
:1014280001230593032306930723079303A903487E
:10143800FFF702F9D6E700BF004400400000024071
:101448007047FEE7FEE7FEE7FEE770477047704724
:1014580008B5FFF783F808BD0F49D1F8883043F481
:101468007003C1F888300D4B1A6842F001021A6007
:10147800002098601A6822F0847222F480321A6080
:10148800074A5A601A6822F480221A60D8604FF01E
:1014980000638B60704700BF00ED00E00038024039
:1014A80010300024DFF834D0002103E00C4B5B58E7
:1014B800435004310B480C4B42189A42F6D30B4A5E
:1014C80002E0002342F8043B094B9A42F9D3FFF7A4
:1014D800C3FF00F011F8FFF743FF70470000022038
:1014E800A8150008000000201000002010000020AF
:1014F80070000020FEE7000070B50D4E0D4CA41BD7
:10150800A4100025A54209D10B4E0C4C00F020F880
:10151800A41BA4100025A54205D170BD56F825309E
:1015280098470135EEE756F8253098470135F2E738
:10153800A0150008A0150008A0150008A4150008AB
:1015480002440346934200D1704703F8011BF9E7B0
:10155800F8B500BFF8BC08BC9E467047F8B500BF98
:08156800F8BC08BC9E46704768
:101570000000000000000000010203040607080943
:10158000000000000102030448656C6C6F20576F77
:08159000726C640A0000000007
:0815980070ECFF7F0100000070
:0415A000BD01000881
:0415A40099010008A1
:1015A8000100000010000000881500080024F40065
:04000005080014AD2E
:00000001FF
